:1000000024C048C00AC78AC63DC744C043C042C0D6
:1000100042C640C03FC0E6C43DC03CC03BC03AC041
:1000200039C038C037C036C035C034C033C032C024
:1000300031C030C02FC02EC02DC01EC501020480AB
:1000400040201008040201084C0711241FBECFEF06
:10005000D2E0DEBFCDBF11E0A0E0B1E0E6E3F6E123
:1000600002C005900D92A031B107D9F721E0A0E1BF
:10007000B1E001C01D92A038B207E1F710E0C5E27F
:10008000D0E003C02197FE01CEDAC432D107D1F708
:1000900018D7CFCAB5CFE82FF0E0E45CFF4FE4916A
:1000A000833040F08630C1F480B78F7380BFA9E3FE
:1000B000B0E00AC092E0853089F480B78F7C80BFC1
:1000C000A6E3B0E0913099F38C91E82381E090E0D1
:1000D00011F490E080E0089591E0EDCF843021F4B8
:1000E0008FB58F738FBDECCF873019F48FB58F7CB0
:1000F000F9CF823031F48091CA008F738093CA00A7
:10010000DFCF8330E9F68091CA008F7CF7CFCF93A1
:10011000DF93E82FF0E0E45CFF4FE491833001F1DE
:10012000823029F48091CA008F738093CA00C8E39B
:10013000D0E0A2E6B0E09E2F90952FB761110BC0E2
:10014000F8948881892388838C9189238C932FBF8D
:10015000DF91CF910895F8948881E82BE883F4CF5C
:100160008091CA008F7C8093CA00CBE3D0E0A3E6E5
:10017000B0E0E1CFCF93DF9386FF04C08F739AE0A6
:10018000981B892FE82FF0E0E45CFF4FE4918B305F
:10019000E1F08330D0F08BE390E0AAE3B0E0C3E677
:1001A000D0E02E2F2095611117C04FB7F8943C91E5
:1001B00032233C93DC013C9132233C9388812823F9
:1001C00028834FBFDF91CF91089588E390E0A7E3A4
:1001D000B0E0C2E6D0E0E5CF623069F44FB7F89402
:1001E0003C9123232C93DC012C912E2B2C93888182
:1001F000E82BE883E6CF9FB7F894888128232883EB
:100200008C91E82BEC939FBFDDCF28B19091240116
:100210009295990F907E2F71922B98B999B1907CFD
:100220008F73982B99B92E9A2E99FECF86B197B1DC
:1002300008953FB7F8948091200190912101A091F9
:100240002201B091230122B708B600FE05C02F3F5E
:1002500019F00196A11DB11D3FBFBA2FA92F982FEC
:100260008827BC01CD01620F711D811D911D43E0E6
:10027000660F771F881F991F4A95D1F70895CF936E
:10028000DF93DC011C96ED91FC9126A137A1203271
:10029000310510F5A6A1B7A1C6A1D7A120E230E093
:1002A0002A1B3B0B4217530708F49A01DB01EC0FA2
:1002B000FD1FB9016E0F7F1FE617F70719F04D916B
:1002C0004193FACFDC011C96ED91FC9186A197A198
:1002D000280F391F37A326A3DF91CF910895DC01A2
:1002E0001C96ED91FC9186A197A1809768F486A158
:1002F00097A19C012F5F3F4F37A326A3E80FF91F5B
:10030000608381E090E0089590E080E00895089592
:10031000DC011C96ED91FC9120A131A182A193A159
:100320002817390738F480A191A1E80FF91F8081BF
:1003300090E008958FEF9FEF089561E081E01ADF6C
:1003400060E081E0E4CE882339F08091350190E0CF
:1003500090931801809317018091170190911801D3
:1003600084359105A0F48091170190911801209196
:10037000170130911801281B390B30931801209375
:1003800017016DE073E03ED980959095089583E55F
:1003900090E0EDCF8F929F92AF92BF92CF92DF927B
:1003A000EF92FF9281E431DFBC01990F880B990B2A
:1003B0000AD820E93BE04BE75DE3B9D84B015C018B
:1003C0006091380170E090E080E0FBD76B017C0128
:1003D00020E030E04EEF52E4A6D818164CF4A70106
:1003E000960160E070E080E093E4E9D66B017C0167
:1003F00020E030E048EC52E4C701B60149D7A5013E
:100400009401DED66B017C01ABD760932801072EE7
:10041000000C880B990BD7D79B01AC01C701B60123
:10042000CED620E030E048EC52E481D899D76093F2
:100430002901C701B601FF90EF90DF90CF90BF90E8
:10044000AF909F908F900895CF92DF92EF92FF929E
:10045000CF9385E020DE892BD9F58091260181118B
:100460004AC080912E01882309F445C0C5B12F9A56
:1004700091DF6B017C01C5B96091330170E090E0C0
:1004800080E09FD720E030E040E251E401D79B01BB
:10049000AC0180912F01813009F5C701B60143D825
:1004A0001816B4F46091360170E090E080E089D7CE
:1004B00020E030E040E251E4EBD69B01AC018091BA
:1004C00036018F3FC1F0C701B6012DD818169CF038
:1004D000CF91FF90EF90DF90CF900895C701B601C4
:1004E00022D8181644F0809136018F3F21F081E028
:1004F00080932F01EDCFCF91FF90EF90DF90CF90C1
:100500001CCFCF92DF92EF92FF920F931F93CF9366
:10051000DF9381E47ADE8C0182E477DEEC01B801BE
:10052000110F880B990B4FD720E93BE04BE75DE3B8
:10053000FED76B017C01BE01DD0F880B990B43D701
:1005400020E93BE04BE75DE3F2D79B01AC01C1E062
:10055000C701B601E8D718160CF0C0E0C0932E0111
:10056000DF91CF911F910F91FF90EF90DF90CF908F
:1005700008954F925F926F927F928F929F92AF9267
:10058000BF92CF92DF92EF92FF9280911001833061
:1005900019F1CCF48130F1F0E09110010E2E000C35
:1005A000FF0BE95DFE4F608182E791E0FF90EF90E5
:1005B000DF90CF90BF90AF909F908F907F906F9083
:1005C0005F904F908CCE853009F463C0873021F75F
:1005D00098DFE2CFDFDEE0CF82E417DEBC01990FC7
:1005E000880B990BF0D620E93BE04BE75DE39FD702
:1005F0004B015C0183E409DEBC01990F880B990B68
:10060000E2D629E030EF4CE85AE391D72B013C01C8
:100610006091390170E090E080E0D3D66B017C01FD
:1006200020E030E04EEF52E47ED718164CF4A701DC
:10063000960160E070E080E093E4C1D56B017C013D
:10064000A3019201C501B401BAD54B015C0120E0C0
:1006500030E048EC52E4C701B6011AD6A501940176
:10066000AFD56B017C017CD660932A01072E000C6C
:10067000880B990BA8D69B01AC01C701B6019FD589
:1006800020E030E048EC52E452D76AD660932B0168
:1006900083CF83E4BADDBC01990F880B990B93D605
:1006A00029E030EF4CE85AE342D74B015C016091FE
:1006B0003A0170E090E080E084D66B017C0120E09C
:1006C00030E04EEF52E42FD718164CF4A7019601F4
:1006D00060E070E080E093E472D56B017C012DEC6A
:1006E0003CEC4CE45DE3C501B401D2D54B015C01A7
:1006F00020E030E048EC52E4C701B601C9D59B01C7
:10070000AC01C501B4015CD56B017C0129D66093B5
:100710002C01072E000C880B990B55D69B01AC01C0
:10072000C701B6014CD520E030E048EC52E4FFD6DA
:1007300017D660932D0130CF60E082E0E8CC0F93B4
:100740001F93CF93DF938C01D0E0C0E0C017D10797
:1007500029F061E082E0DBDC2196F8CFDF91CF91D8
:100760001F910F91089581E08093260161E083E05D
:10077000CEDCC7CE1092260160E083E0C8CC809129
:100780001A01882349F081E086DC892B29F481E075
:1007900080931901EFDFD0CF08951FBC1EBC8EB52A
:1007A00084608EBD8EB581608EBD709A81E0CBDD98
:1007B0009DBD8CBD789A0895CF92DF92EF92FF9203
:1007C000CF93DF9378982F9885B7877E806185BF18
:1007D000F89481B5806481BD8091320198E08A30BF
:1007E00010F49091320121B5892F880F880F807203
:1007F000977F892B822B81BD789485B7806285BFD6
:10080000789481E08093110188958091110188236B
:1008100009F44BC019DE80913401882341F08091A6
:10082000340190E064E670E0EDD689DF85DF8091E9
:100830003701882391F08091370190E06AE070E001
:10084000E1D67C01D0E0C0E0CE15DF0529F061E003
:1008500083E05DDC2196F8CF8DDF80912E01813021
:1008600021F580912F01813021F0809133018F3F5C
:10087000E1F4809136018F3FC1F02F9A8BDD6B013F
:100880007C012F986091360170E090E080E099D56E
:1008900020E030E040E251E4FBD49B01AC01C70111
:1008A000B60141D687FF109211018091110181118B
:1008B000ABCFF89485B78F7D85BF11BC2F9A6DDFC4
:1008C000789462E084E056DC62E086E053DC1092CB
:1008D00025011092160181E080931A0144DF81E026
:1008E00032DD9DBD8CBDDF91CF91FF90EF90DF9009
:1008F000CF900895DC011C96ED91FC9120A131A1CF
:1009000082A193A12817390760F480A191A19C01CD
:100910002F5F3F4F31A320A3E80FF91F808190E0A4
:1009200008958FEF9FEF0895DC011C96ED91FC91E7
:1009300082A193A120A131A1821B930B089566236C
:1009400051F082E791E0F0DF892B29F082E791E016
:10095000D1DF8093100181E00895FF920F931F93E0
:10096000CF93DF93EC01F62E08811981C80111D4D1
:10097000F81619F06F2DC80114D4CE01DF91CF9174
:100980001F910F91FF900895CF93DF9300D0CDB7C3
:10099000DEB782E791E0C8DF892BF9F082E791E0CA
:1009A000A9DF8093100182E791E0BEDF892BA9F0D7
:1009B00082E791E09FDF20911001022E000C330BA3
:1009C000F901E95DFE4F80832930310534F03A8327
:1009D0002983682FCE010196C0DF0F900F90DF9121
:1009E000CF9108951F920F920FB60F9211242F935B
:1009F0003F938F939F93AF93BF9380911C019091EE
:100A00001D01A0911E01B0911F0130911B0126E034
:100A1000230F2D3768F129E8230F0396A11DB11D7F
:100A200020931B0180931C0190931D01A0931E0134
:100A3000B0931F018091200190912101A09122018A
:100A4000B09123010196A11DB11D809320019093C7
:100A50002101A0932201B0932301BF91AF919F91F7
:100A60008F913F912F910F900FBE0F901F9018956F
:100A70000296A11DB11DD4CF1F920F920FB60F92F7
:100A800011242F933F934F935F936F937F938F9393
:100A90009F93AF93BF93CF93EF93FF93C091A30026
:100AA0008C2F8C7019F18FEF809367018091680112
:100AB000909169019F77909369018093680180917B
:100AC000A300846C8093A300FF91EF91CF91BF911D
:100AD000AF919F918F917F916F915F914F913F91D6
:100AE0002F910F900FBE0F901F901895C6FD28C034
:100AF000809168019091690197FD22C0C7FF6FC086
:100B0000C1FFAFC020916301309164018091650104
:100B1000909166012817390708F0A1C08091630100
:100B2000909164019C012F5F3F4F309364012093AB
:100B30006301815C9E4FFC0180818093A0004FC0C7
:100B4000C0FF66C0809168019091690197FF29C03C
:100B500080916801909169012091A0009695982F4D
:100B600088279795879588279370822B90936901A2
:100B700080936801E0916A01F0916B01309789F1EF
:100B80001092600110925F0160916701809168018D
:100B9000909169010995811124C087E08093A40098
:100BA00093CF8091A00090E09093690180936801B9
:100BB000809167018F5F80936701809168019091B8
:100BC0006901897F9927803F9105A1F6809168018D
:100BD000909169019068909369018093680183E026
:100BE000DDCFC1FF10C01092660110926501E09147
:100BF0006E01F0916F01309709F009951092640130
:100C000010926301ECCF1092620110926101E7CF64
:100C1000C1FF15C0E0917001F0917101309709F0AA
:100C200009958FEF80936701809168019091690128
:100C30009F77909369018093680180E443CFE091AE
:100C40006C01F0916D01309761F310926001109288
:100C50005F0180916101909162010995E2CF82E08C
:100C60009DCF8091610190916201809790F4809175
:100C70006101909162019C012F5F3F4F30936201AF
:100C8000209361012091A000815C9E4FFC01208394
:100C9000A6CF86E083CF1F920F920FB60F9211243A
:100CA0002F933F934F935F936F937F938F939F9374
:100CB000AF93BF93EF93FF93809117019091180129
:100CC000892B31F581E03FDB9DBD8CBD58DD8091E6
:100CD0001601882349F08AE0DED90197B1F4109219
:100CE000160181E090E02BDDFF91EF91BF91AF9174
:100CF0009F918F917F916F915F914F913F912F9134
:100D00000F900FBE0F901F90189534DD55DDECCF7E
:100D100080E019DB9DBD8CBD32DDE6CF1F920F92C6
:100D20000FB60F921124CF92DF92EF92FF922F9382
:100D30003F934F935F936F937F938F939F93AF9363
:100D4000BF93EF93FF93C0901201D0901301E090F6
:100D50001401F09015016DDA609312017093130184
:100D600080931401909315018091120190911301C9
:100D7000A0911401B09115018C199D09AE09BF090C
:100D80000A97A105B10538F0809119018823C1F0B7
:100D90001092190111DDFF91EF91BF91AF919F91D9
:100DA0008F917F916F915F914F913F912F91FF9024
:100DB000EF90DF90CF900F900FBE0F901F9018957F
:100DC00081E069D9892B31F561E081E0A0D962E049
:100DD00081E0D0D981E090E0B2DC109211018091E5
:100DE0001A01811104C081E080931A01BCDC81E00A
:100DF000AADA9DBD8CBD80E04ED9019761F6809145
:100E00002501811102C010922F0181E080932501FC
:100E100093DCC1CF10921A01EECF1F920F920FB642
:100E20000F9211242F933F934F935F936F937F9370
:100E30008F939F93AF93BF93EF93FF93809125017F
:100E4000882371F08AE027D9892B51F4109225016B
:100E500081E08093160170DC81E075DA9DBD8CBD68
:100E6000F3DAFF91EF91BF91AF919F918F917F91B5
:100E70006F915F914F913F912F910F900FBE0F9007
:100E80001F9018951F920F920FB60F9211240F907A
:100E90000FBE0F901F901895E2E7F1E013821282C7
:100EA00088EE93E0A0E0B0E084839583A683B783C7
:100EB00084E091E0918380838FE391E0958784873C
:100EC0000895CF93DF9300D0CDB7DEB7789480B785
:100ED000836080BF83B7877F83BF83B7887F83604A
:100EE00083BF89B7816089BF8091C900887F809363
:100EF000C9008091CA008C7F81608093CA00809174
:100F0000C900877E8093C9008091C900887F836073
:100F10008093C9008EB5887F8EBD8FB58C7F816030
:100F20008FBD8EB5877E8EBD8EB5887F83608EBD6A
:100F300080E18093670084EA809368008CEF80935F
:100F4000660085B1887F866085B92F9A60E080E071
:100F500011D962E081E00ED961E082E00BD961E055
:100F600083E008D962E085E005D960E08AE002D933
:100F700060E081E4FFD860E082E4FCD860E083E4D4
:100F8000F9D862E084E0F6D862E086E0F3D8F2DBDC
:100F900081E08093240182E280932701109228014E
:100FA0001092290110922A0110922B0110922C010B
:100FB00010922D0110922E0110922F0189E680933C
:100FC00030011092310188E0809332018FEF8093DD
:100FD000330194E69093340192E39093350180932A
:100FE00036011092370184E18093380180933901F2
:100FF00010923A011A82198267E5CE010196ADDCA2
:1010000081E090E09A83898360E5CE010196A5DCBA
:1010100082E090E09A83898363E3CE0101969DDCB0
:1010200083E090E09A8389836DE4CE01019695DC9C
:1010300084E090E09A83898360E0CE0101968DDCA4
:1010400009E010E0C801A5D0F801E95DFE4F8F3F2F
:1010500009F098C060811A830983CE0101967DDC76
:101060000F5F1F4F0431110569F7809130018830FF
:1010700008F48AC080913001883708F085C08091DB
:101080003001E0917E01F0917F01880F8093A200F2
:101090001092A1008FEF80A78CEB8093A5008FE9C1
:1010A00094E094A783A784EC94E096A785A789EBA6
:1010B00092E090AB87A7F89480E38BBF83E080BD7C
:1010C00081E282BB6ADB789480913101813009F042
:1010D0005EC049DBAED800913B0110913C012091EC
:1010E0003D0130913E016017710782079307A8F018
:1010F00000913B0110913C0120913D0130913E0156
:101100006B017C01C01AD10AE20AF30A9701860139
:10111000003412442F403105E8F260933B01709394
:101120003C0180933D0190933E0110912E011130BE
:1011300089F680912601882369F280912501882310
:1011400049F280912F018111C5CF809133018F3FEA
:1011500009F220D96B017C016091330170E090E0CD
:1011600080E02FD120E030E040E251E491D09B01BB
:10117000AC01C701B60188D087FFACCF10932F0117
:10118000DCD8A8CF80836CCF89E690E07ACF14DBDF
:10119000A1CFE199FECF9FBB8EBBE09A99278DB37B
:1011A0000895262FE199FECF1CBA9FBB8EBB2DBBA5
:1011B0000FB6F894E29AE19A0FBE0196089550583E
:1011C000BB27AA270ED075C166D130F06BD120F0B5
:1011D00031F49F3F11F41EF45BC10EF4E095E7FB80
:1011E00051C1E92F77D180F3BA17620773078407DB
:1011F000950718F071F49EF58FC10EF4E0950B2E53
:10120000BA2FA02D0B01B90190010C01CA01A00158
:101210001124FF27591B99F0593F50F4503E68F1B3
:101220001A16F040A22F232F342F4427585FF3CFF4
:10123000469537952795A795F0405395C9F77EF4C5
:101240001F16BA0B620B730B840BBAF09150A1F00E
:10125000FF0FBB1F661F771F881FC2F70EC0BA0F94
:10126000621F731F841F48F4879577956795B7951C
:10127000F7959E3F08F0B3CF9395880F08F0992714
:10128000EE0F979587950895D9D008F481E00895D9
:101290000CD00FC107D140F0FED030F021F45F3FF9
:1012A00019F0F0C0511139C1F3C014D198F399234A
:1012B000C9F35523B1F3951B550BBB27AA2762171A
:1012C0007307840738F09F5F5F4F220F331F441F5F
:1012D000AA1FA9F333D00E2E3AF0E0E830D0915097
:1012E0005040E695001CCAF729D0FE2F27D0660F84
:1012F000771F881FBB1F261737074807AB07B0E8C3
:1013000009F0BB0B802DBF01FF2793585F4F2AF0D8
:101310009E3F510568F0B6C000C15F3FECF3983EB8
:10132000DCF3869577956795B795F7959F5FC9F735
:10133000880F911D9695879597F90895E1E0660FBE
:10134000771F881FBB1F621773078407BA0720F037
:10135000621B730B840BBA0BEE1F88F7E0950895A0
:1013600004D06894B111D9C00895BCD088F09F57BB
:1013700090F0B92F9927B751A0F0D1F0660F771FE1
:10138000881F991F1AF0BA95C9F712C0B13081F0C1
:10139000C3D0B1E00895C0C0672F782F8827B85F09
:1013A00039F0B93FCCF3869577956795B395D9F722
:1013B0003EF490958095709561957F4F8F4F9F4F2C
:1013C0000895E89409C097FB3EF490958095709538
:1013D00061957F4F8F4F9F4F9923A9F0F92F96E981
:1013E000BB279395F695879577956795B795F111F6
:1013F000F8CFFAF4BB0F11F460FF1BC06F5F7F4F93
:101400008F4F9F4F16C0882311F096E911C07723A4
:1014100021F09EE8872F762F05C0662371F096E8AD
:10142000862F70E060E02AF09A95660F771F881F7C
:10143000DAF7880F9695879597F90895990F000820
:10144000550FAA0BE0E8FEEF16161706E807F90796
:10145000C0F012161306E407F50798F0621B730B31
:10146000840B950B39F40A2661F0232B242B252BB2
:1014700021F408950A2609F4A140A6958FEF811D55
:10148000811D089597F99F6780E870E060E00895F6
:101490009FEF80EC089500240A941616170618068C
:1014A0000906089500240A94121613061406050668
:1014B0000895092E0394000C11F4882352F0BB0FF9
:1014C00040F4BF2B11F460FF04C06F5F7F4F8F4F5C
:1014D0009F4F089557FD9058440F551F59F05F3F97
:1014E00071F04795880F97FB991F61F09F3F79F046
:1014F00087950895121613061406551FF2CF4695C8
:10150000F1DF08C0161617061806991FF1CF869549
:101510007105610508940895E894BB27662777272D
:10152000CB0197F908958ADF08F48FEF08950AD068
:10153000C0CFB1DF28F0B6DF18F0952309F0A2CFB5
:10154000A7CFEBCFC7DFA8F39923D9F35523C9F36E
:10155000950F50E0551FAA27EE27FF27BB27002431
:101560000894679520F4E20FF31FB41F0A1E220FA0
:10157000331F441FAA1F6695A9F7779530F4F30F20
:10158000B41F0A1E121E08F46395330F441FAA1FCE
:10159000221F769599F7879520F4B40F0A1E121E24
:1015A000631F440FAA1F221F331F8695A9F7862F9A
:1015B000712D602D11249F5750408AF0E1F088234F
:1015C0004AF0EE0FFF1FBB1F661F771F881F915049
:1015D0005040A9F79E3F510570F054CF9ECF5F3F1A
:1015E000ECF3983EDCF3869577956795B795F7957C
:1015F000E7959F5FC1F7FE2B880F911D9695879504
:1016000097F908950024552704C0080E591F880F24
:10161000991F009729F076956795B8F37105B9F78A
:10162000802D952F0895EE0FFF1F0590F491E02D6A
:061630000994F894FFCFBD
:10163600000000006F013F0194047A0488018701CD
:00000001FF
