:1000000024C048C01AC790C64EC744C043C042C0AF
:100010004AC640C03FC09FC41FC63CC03BC0F5C5D8
:1000200039C038C037C036C035C034C033C032C024
:1000300031C030C02FC02EC02DC0D7C401020480F3
:1000400040201008040201085D0711241FBECFEFF5
:10005000D2E0DEBFCDBF11E0A0E0B1E0E6E9F6E11D
:1000600002C005900D92A031B107D9F721E0A0E1BF
:10007000B1E001C01D92A03BB207E1F710E0C5E27C
:10008000D0E003C02197FE01FEDAC432D107D1F7D8
:1000900041D7FFCAB5CFE82FF0E0E45CFF4FE49111
:1000A000A6E3B0E0833010F0A9E3B0E08C91E82340
:1000B00081E090E011F490E080E00895CF93DF9329
:1000C000E82FF0E0E45CFF4FE491833001F18230EF
:1000D00029F48091CA008F738093CA00C8E3D0E0EE
:1000E000A2E6B0E09E2F90952FB761110BC0F89457
:1000F0008881892388838C9189238C932FBFDF91FA
:10010000CF910895F8948881E82BE883F4CF80910B
:10011000CA008F7C8093CA00CBE3D0E0A3E6B0E0B6
:10012000E1CFCF93DF9386FF04C08F739AE0981BD3
:10013000892FE82FF0E0E45CFF4FE4918B30E1F091
:100140008330D0F08BE390E0AAE3B0E0C3E6D0E0E8
:100150002E2F2095611117C04FB7F8943C91322390
:100160003C93DC013C9132233C93888128232883F3
:100170004FBFDF91CF91089588E390E0A7E3B0E00F
:10018000C2E6D0E0E5CF623069F44FB7F8943C9115
:1001900023232C93DC012C912E2B2C938881E82B8C
:1001A000E883E6CF9FB7F8948881282328838C9131
:1001B000E82BEC939FBFDDCF28B19091220192955F
:1001C000990F907E2F71922B98B999B1907C8F7373
:1001D000982B99B92E9A2E99FECF86B197B1089592
:1001E0003FB7F89480911E0190911F01A0912001CA
:1001F000B091210122B708B600FE05C02F3F19F0CB
:100200000196A11DB11D3FBFBA2FA92F982F882796
:10021000BC01CD01620F711D811D911D43E0660F70
:10022000771F881F991F4A95D1F708950F931F9341
:10023000CF93DF93DC011C96ED91FC91DF01AA5B6B
:10024000BF4F2D913C9111972034310528F50D9128
:100250001C911197CD91DC9120E430E0201B310BF3
:100260004217530708F49A01DB01EC0FFD1FB90197
:100270006E0F7F1FE617F70719F04D914193FACFE4
:10028000DC011C96ED91FC91EA5BFF4F808191812E
:10029000280F391F31832083DF91CF911F910F9158
:1002A0000895FC0184859585FC01EA5BFF4F208160
:1002B00031812034310570F420813181A9014F5FF3
:1002C0005F4F51834083820F931FFC01608381E065
:1002D00090E0089590E080E008950895FC01848501
:1002E0009585FC01E05CFF4F40815181DC01AE5BF4
:1002F000BF4F2D913C914217530740F4208131812B
:10030000820F931FFC01808190E008958FEF9FEF93
:10031000089561E081E005DF60E081E0CFCE80916B
:100320003101843548F48091310190E06DE073E053
:1003300099D980959095089585E797E608958F92CD
:100340009F92AF92BF92CF92DF92EF92FF9281E4A1
:1003500033DFBC01990F880B990B65D820E93BE08E
:100360004BE75DE314D94B015C016091340170E00F
:1003700090E080E056D86B017C0120E030E04EEF49
:1003800052E401D918164CF4A701960160E070E020
:1003900080E093E444D76B017C0120E030E048EC3E
:1003A00052E4C701B601A4D7A501940139D76B0166
:1003B0007C0106D860932401072E000C880B990B52
:1003C00032D89B01AC01C701B60129D720E030E04B
:1003D00048EC52E4DCD8F4D760932501C701B6019C
:1003E000FF90EF90DF90CF90BF90AF909F908F9055
:1003F0000895CF92DF92EF92FF92CF9385E04BDE8C
:10040000892BD9F58091380181114AC080912A0148
:10041000882309F445C0C5B12F9A91DF6B017C0197
:10042000C5B960912F0170E090E080E0FAD720E03C
:1004300030E040E251E45CD79B01AC0180912B019C
:10044000813009F5C701B6019ED81816B4F4609141
:10045000320170E090E080E0E4D720E030E040E25C
:1004600051E446D79B01AC01809132018F3FC1F02E
:10047000C701B60188D818169CF0CF91FF90EF9075
:10048000DF90CF900895C701B6017DD8181644F0CB
:10049000809132018F3F21F081E080932B01EDCFDD
:1004A000CF91FF90EF90DF90CF9033CFCF92DF923C
:1004B000EF92FF920F931F93CF93DF9381E47CDE43
:1004C0008C0182E479DEEC01B801110F880B990BE5
:1004D000AAD720E93BE04BE75DE359D86B017C01EB
:1004E000BE01DD0F880B990B9ED720E93BE04BE75F
:1004F0005DE34DD89B01AC01C1E0C701B60143D813
:1005000018160CF0C0E0C0932A01DF91CF911F9123
:100510000F91FF90EF90DF90CF9008954F925F92F0
:100520006F927F928F929F92AF92BF92CF92DF9203
:10053000EF92FF9280911001833019F1CCF4813059
:10054000F1F0E09110010E2E000CFF0BED5DFE4F5F
:10055000608180E991E0FF90EF90DF90CF90BF90B5
:10056000AF909F908F907F906F905F904F9099CEBB
:10057000853009F463C0873021F798DFE2CFDFDEF2
:10058000E0CF82E419DEBC01990F880B990B4BD7A1
:1005900020E93BE04BE75DE3FAD74B015C0183E4E4
:1005A0000BDEBC01990F880B990B3DD729E030EF8A
:1005B0004CE85AE3ECD72B013C016091350170E027
:1005C00090E080E02ED76B017C0120E030E04EEF20
:1005D00052E4D9D718164CF4A701960160E070E0F8
:1005E00080E093E41CD66B017C01A3019201C5015C
:1005F000B40115D64B015C0120E030E048EC52E438
:10060000C701B60175D6A50194010AD66B017C011C
:10061000D7D660932601072E000C880B990B03D7C1
:100620009B01AC01C701B601FAD520E030E048ECEF
:1006300052E4ADD7C5D66093270183CF83E4BCDDF8
:10064000BC01990F880B990BEED629E030EF4CE8EE
:100650005AE39DD74B015C016091360170E090E058
:1006600080E0DFD66B017C0120E030E04EEF52E409
:100670008AD718164CF4A701960160E070E080E07C
:1006800093E4CDD56B017C012DEC3CEC4CE45DE3B7
:10069000C501B4012DD64B015C0120E030E048ECEF
:1006A00052E4C701B60124D69B01AC01C501B401D7
:1006B000B7D56B017C0184D660932801072E000C0E
:1006C000880B990BB0D69B01AC01C701B601A7D529
:1006D00020E030E048EC52E45AD772D6609329010A
:1006E00030CF0F931F93CF93DF938C01D0E0C0E006
:1006F000C017D10729F061E082E0E0DC2196F8CF55
:10070000DF91CF911F910F91089581E0809338017F
:1007100061E083E0D3DCCACE1092380160E083E070
:10072000CDCC1FBC1EBC8EB584608EBD8EB58160E5
:100730008EBD709AF4DD9DBD8CBD789A0895CF92E0
:10074000DF92EF92FF92CF93DF9378982F9885B73F
:10075000877E806185BFF89481B5806481BD80917A
:100760002E0198E08A3010F490912E0121B5892F46
:10077000880F880F8072977F892B822B81BD789498
:1007800085B7806285BF789481E080931101889558
:1007900080911101882309F449C02BDE809130013A
:1007A000882351F08091300190E064E670E05AD7E0
:1007B00098DF60E082E082DC80913301882391F051
:1007C0008091330190E06AE070E04CD77C01D0E08A
:1007D000C0E0CE15DF0529F061E083E06FDC2196F3
:1007E000F8CF9ADF80912B01813021F080912F0189
:1007F0008F3FE1F4809132018F3FC1F02F9A9FDD4E
:100800006B017C012F986091320170E090E080E0F4
:1008100008D620E030E040E251E46AD59B01AC010B
:10082000C701B601B0D687FF109211018091110166
:100830008111ADCFF89485B78F7D85BF11BC2F9AFC
:1008400070DF789462E084E06CDC62E086E069DC72
:10085000109237011092160181E08093180155DF44
:100860005EDD9DBD8CBDDF91CF91FF90EF90DF905D
:10087000CF900895FC0184859585FC01E05CFF4FD5
:1008800040815181DC01AE5BBF4F2D913C914217FD
:10089000530768F420813181A9014F5F5F4F518375
:1008A0004083820F931FFC01808190E008958FEFB9
:1008B0009FEF0895FC0124853585F901EE5BFF4F1C
:1008C00080819181205C3F4FF90120813181821B21
:1008D000930B0895662351F080E991E0EBDF892BBB
:1008E00029F080E991E0C6DF8093100181E008954E
:1008F0001F93CF93DF93EC01162F7BD4181731F0A1
:10090000612FCE01DF91CF911F917BC4DF91CF91F9
:100910001F91089580E991E0CDDF892BD9F080E91E
:1009200091E0A8DF8093100180E991E0C3DF892B7B
:1009300089F080E991E09EDF682F90911001892F66
:10094000990F990BFC01ED5DFE4F60838930910595
:100950000CF0CECF08951F920F920FB60F92112474
:100960002F933F938F939F93AF93BF9380911A01DF
:1009700090911B01A0911C01B0911D0130911901B2
:1009800026E0230F2D3768F129E8230F0396A11DD8
:10099000B11D2093190180931A0190931B01A0931C
:1009A0001C01B0931D0180911E0190911F01A09127
:1009B0002001B09121010196A11DB11D80931E015E
:1009C00090931F01A0932001B0932101BF91AF919B
:1009D0009F918F913F912F910F900FBE0F901F907D
:1009E00018950296A11DB11DD4CF1F920F920FB67C
:1009F0000F9211242F933F934F935F936F937F93A5
:100A00008F939F93AF93BF93CF93EF93FF93C09137
:100A1000A3008C2F8C7019F18FEF8093850180914A
:100A20008601909187019F7790938701809386013B
:100A30008091A300846C8093A300FF91EF91CF91EC
:100A4000BF91AF919F918F917F916F915F914F91E6
:100A50003F912F910F900FBE0F901F901895C6FDDC
:100A600028C0809186019091870197FD22C0C7FF21
:100A70006FC0C1FFAFC02091810130918201809190
:100A80008301909184012817390708F0A1C0809153
:100A90008101909182019C012F5F3F4F3093820131
:100AA00020938101835C9E4FFC0180818093A00094
:100AB0004FC0C0FF66C0809186019091870197FF6B
:100AC00029C080918601909187012091A000969580
:100AD000982F88279795879588279370822B9093D6
:100AE000870180938601E0918801F0918901309718
:100AF00089F110927E0110927D01609185018091B3
:100B00008601909187010995811124C087E0809327
:100B1000A40093CF8091A00090E0909387018093F0
:100B20008601809185018F5F809385018091860188
:100B300090918701897F9927803F9105A1F6809147
:100B40008601909187019068909387018093860138
:100B500083E0DDCFC1FF10C01092840110928301A9
:100B6000E0918C01F0918D01309709F00995109278
:100B7000820110928101ECCF1092800110927F01CE
:100B8000E7CFC1FF15C0E0918E01F0918F01309742
:100B900009F009958FEF80938501809186019091EE
:100BA00087019F77909387018093860180E443CFEC
:100BB000E0918A01F0918B01309761F310927E01F0
:100BC00010927D0180917F01909180010995E2CF83
:100BD00082E09DCF80917F019091800180349105CA
:100BE00090F480917F01909180019C012F5F3F4F95
:100BF0003093800120937F012091A000835C9E4F61
:100C0000FC012083A5CF86E082CF1F920F920FB602
:100C10000F9211242F933F934F935F936F937F9382
:100C20008F939F93AF93BF93EF93FF93E0919E01B8
:100C3000F0919F010995FF91EF91BF91AF919F9125
:100C40008F917F916F915F914F913F912F910F9075
:100C50000FBE0F901F9018951F920F920FB60F9214
:100C600011242F933F934F935F936F937F938F93B1
:100C70009F93AF93BF93EF93FF93E091A701F09100
:100C8000A8010995FF91EF91BF91AF919F918F912D
:100C90007F916F915F914F913F912F910F900FBE78
:100CA0000F901F9018951F920F920FB60F9211245C
:100CB0002F933F934F935F936F937F938F939F9364
:100CC000AF93BF93EF93FF932ADB9DBD8CBD8091C3
:100CD0001801882341F081E0DED9892B21F481E0DD
:100CE0008093170119DD80911601882349F08AE06D
:100CF000D2D90197B1F41092160181E090E0F1DCB5
:100D0000FF91EF91BF91AF919F918F917F916F91E3
:100D10005F914F913F912F910F900FBE0F901F90B9
:100D20001895FADC0CDDECCF1F920F920FB60F92E4
:100D30001124CF92DF92EF92FF922F933F934F9324
:100D40005F936F937F938F939F93AF93BF93CF9353
:100D5000DF93EF93FF93C0901201D0901301E090C6
:100D60001401F09015013CDA6093120170931301A5
:100D700080931401909315018091120190911301B9
:100D8000A0911401B09115018C199D09AE09BF09FC
:100D90000A97A105B10538F0809117018823D1F099
:100DA00010921701CCDCFF91EF91DF91CF91BF91B1
:100DB000AF919F918F917F916F915F914F913F91F3
:100DC0002F91FF90EF90DF90CF900F900FBE0F907C
:100DD0001F90189581E05FD9892B61F562E081E071
:100DE000A0D981E090E07DDC109211018091180182
:100DF00081110CC0CCB5DDB592DAC81BD90BC9384E
:100E0000D34120F081E0809318017FDC88DA9DBD1A
:100E10008CBD80E040D9019731F680913701811176
:100E200002C010922B0181E08093370160E082E0E4
:100E300045D9B9CF10921801ECCF1F920F920FB67F
:100E40000F9211242F933F934F935F936F937F9350
:100E50008F939F93AF93BF93EF93FF93809137014D
:100E6000882379F08AE017D9892B59F41092370139
:100E700081E08093160160E082E020D950DA9DBDC8
:100E80008CBDB7DAFF91EF91BF91AF919F918F9198
:100E90007F916F915F914F913F912F910F900FBE76
:100EA0000F901F9018951F920F920FB60F9211245A
:100EB0000F900FBE0F901F901895E0E9F1E013829C
:100EC000128288EE93E0A0E0B0E084839583A6834D
:100ED000B78384E091E0918380838DE391E09587EF
:100EE0008487E7EAF1E0128213828AE290E0958338
:100EF00084838BE290E097838683EEE9F1E01282AF
:100F000013828CE290E0958384838DE290E0978356
:100F10008683089581E2E1E0F0E0809357008491B8
:100F20008150809374000000789480B7836080BF04
:100F300083B7877F83BF83B7887F836083BF89B789
:100F4000816089BF8091C900887F8093C9008091AA
:100F5000CA008C7F81608093CA008091C900877E1F
:100F60008093C9008091C900887F83608093C90005
:100F70008EB5887F8EBD8FB58C7F81608FBD8EB51D
:100F8000877E8EBD8EB5887F83608EBD80E1809325
:100F9000670084EA809368008CEF8093660085B1D7
:100FA000887F866085B92F9A60E080E0BAD862E0D9
:100FB00081E0B7D861E082E0B4D861E083E0B1D8E5
:100FC00062E085E0AED860E08AE0ABD860E081E422
:100FD000A8D860E082E4A5D860E083E4A2D862E00B
:100FE00084E09FD862E086E09CD896DB81E0809325
:100FF000220182E2809323011092240110922501A4
:1010000010922601109227011092280110922901B6
:1010100010922A0110922B0189E680932C011092E4
:101020002D0188E080932E018FEF80932F0194E6AD
:101030009093300192E390933101809332011092AA
:10104000330184E18093340180933501109236019D
:1010500067E590E080E04CDC69E681E090E048DC08
:1010600064E782E090E044DC64E783E090E040DC09
:1010700069E784E090E03CDC60E585E090E038DC06
:1010800069E686E090E034DC63E387E090E030DC02
:1010900060E088E090E02CDCC9E0D0E0CE01A9D08F
:1010A000FE01ED5DFE4F8F3F09F09CC06081CE01D7
:1010B0001FDC2196C431D10589F780912C0188303D
:1010C00008F492C080912C01883708F08DC080917F
:1010D0002C0120919C0130919D01880F8093A200EA
:1010E0001092A100F901E85BFF4F8FEF80838CEB3A
:1010F0008093A50033968AE694E0918380833296AC
:101100008AE894E091838083215B3F4F8EE892E0F0
:10111000F90191838083F89480E38BBF83E080BDE5
:1011200081E282BBFEDA789480912D01813009F052
:101130005EC0EBDAC1E054D8C0903901D0903A01DA
:10114000E0903B01F0903C016C157D058E059F05FC
:10115000C0F0C0903901D0903A01E0903B01F0908E
:101160003C019B01AC012C193D094E095F09690145
:101170007A0130E4C31632E4D3063FE0E306F1041B
:10118000D0F26093390170933A0180933B019093C0
:101190003C0180913801882371F2809137018823C6
:1011A00051F280912B018111C6CF80912F018F3F89
:1011B00011F2C5D86B017C0160912F0170E090E0C5
:1011C00080E02FD120E030E040E251E491D09B015B
:1011D000AC01C701B60188D087FFADCFC0932B010A
:1011E00098D8A9CF808365CF89E690E072CFA7DA3F
:1011F000A1CFE199FECF9FBB8EBBE09A99278DB31B
:101200000895262FE199FECF1CBA9FBB8EBB2DBB44
:101210000FB6F894E29AE19A0FBE019608955058DD
:10122000BB27AA270ED075C166D130F06BD120F054
:1012300031F49F3F11F41EF45BC10EF4E095E7FB1F
:1012400051C1E92F77D180F3BA176207730784077A
:10125000950718F071F49EF58FC10EF4E0950B2EF2
:10126000BA2FA02D0B01B90190010C01CA01A001F8
:101270001124FF27591B99F0593F50F4503E68F153
:101280001A16F040A22F232F342F4427585FF3CF94
:10129000469537952795A795F0405395C9F77EF465
:1012A0001F16BA0B620B730B840BBAF09150A1F0AE
:1012B000FF0FBB1F661F771F881FC2F70EC0BA0F34
:1012C000621F731F841F48F4879577956795B795BC
:1012D000F7959E3F08F0B3CF9395880F08F09927B4
:1012E000EE0F979587950895D9D008F481E0089579
:1012F0000CD00FC107D140F0FED030F021F45F3F99
:1013000019F0F0C0511139C1F3C014D198F39923E9
:10131000C9F35523B1F3951B550BBB27AA276217B9
:101320007307840738F09F5F5F4F220F331F441FFE
:10133000AA1FA9F333D00E2E3AF0E0E830D0915036
:101340005040E695001CCAF729D0FE2F27D0660F23
:10135000771F881FBB1F261737074807AB07B0E862
:1013600009F0BB0B802DBF01FF2793585F4F2AF078
:101370009E3F510568F0B6C000C15F3FECF3983E58
:10138000DCF3869577956795B795F7959F5FC9F7D5
:10139000880F911D9695879597F90895E1E0660F5E
:1013A000771F881FBB1F621773078407BA0720F0D7
:1013B000621B730B840BBA0BEE1F88F7E095089540
:1013C00004D06894B111D9C00895BCD088F09F575B
:1013D00090F0B92F9927B751A0F0D1F0660F771F81
:1013E000881F991F1AF0BA95C9F712C0B13081F061
:1013F000C3D0B1E00895C0C0672F782F8827B85FA9
:1014000039F0B93FCCF3869577956795B395D9F7C1
:101410003EF490958095709561957F4F8F4F9F4FCB
:101420000895E89409C097FB3EF4909580957095D7
:1014300061957F4F8F4F9F4F9923A9F0F92F96E920
:10144000BB279395F695879577956795B795F11195
:10145000F8CFFAF4BB0F11F460FF1BC06F5F7F4F32
:101460008F4F9F4F16C0882311F096E911C0772344
:1014700021F09EE8872F762F05C0662371F096E84D
:10148000862F70E060E02AF09A95660F771F881F1C
:10149000DAF7880F9695879597F90895990F0008C0
:1014A000550FAA0BE0E8FEEF16161706E807F90736
:1014B000C0F012161306E407F50798F0621B730BD1
:1014C000840B950B39F40A2661F0232B242B252B52
:1014D00021F408950A2609F4A140A6958FEF811DF5
:1014E000811D089597F99F6780E870E060E0089596
:1014F0009FEF80EC089500240A941616170618062C
:101500000906089500240A94121613061406050607
:101510000895092E0394000C11F4882352F0BB0F98
:1015200040F4BF2B11F460FF04C06F5F7F4F8F4FFB
:101530009F4F089557FD9058440F551F59F05F3F36
:1015400071F04795880F97FB991F61F09F3F79F0E5
:1015500087950895121613061406551FF2CF469567
:10156000F1DF08C0161617061806991FF1CF8695E9
:101570007105610508940895E894BB2766277727CD
:10158000CB0197F908958ADF08F48FEF08950AD008
:10159000C0CFB1DF28F0B6DF18F0952309F0A2CF55
:1015A000A7CFEBCFC7DFA8F39923D9F35523C9F30E
:1015B000950F50E0551FAA27EE27FF27BB270024D1
:1015C0000894679520F4E20FF31FB41F0A1E220F40
:1015D000331F441FAA1F6695A9F7779530F4F30FC0
:1015E000B41F0A1E121E08F46395330F441FAA1F6E
:1015F000221F769599F7879520F4B40F0A1E121EC4
:10160000631F440FAA1F221F331F8695A9F7862F39
:10161000712D602D11249F5750408AF0E1F08823EE
:101620004AF0EE0FFF1FBB1F661F771F881F9150E8
:101630005040A9F79E3F510570F054CF9ECF5F3FB9
:10164000ECF3983EDCF3869577956795B795F7951B
:10165000E7959F5FC1F7FE2B880F911D96958795A3
:1016600097F908950024552704C0080E591F880FC4
:10167000991F009729F076956795B8F37105B9F72A
:10168000802D952F0895EE0FFF1F0590F491E02D0A
:061690000994F894FFCF5D
:1016960000000000510116015A043A046E016D0162
:00000001FF
