:1000000024C048C047C7BDC67BC744C043C042C028
:1000100077C640C03FC0CCC44CC63CC03BC022C623
:1000200039C038C037C036C035C034C033C032C024
:1000300031C030C02FC02EC02DC004C501020480C5
:1000400040201008040201088A0711241FBECFEFC8
:10005000D2E0DEBFCDBF11E0A0E0B1E0E4EEF6E11A
:1000600002C005900D92A031B107D9F721E0A0E1BF
:10007000B1E001C01D92A03BB207E1F710E0C5E27C
:10008000D0E003C02197FE0125DBC432D107D1F7B0
:100090006ED726CBB5CFE82FF0E0E45CFF4FE491BC
:1000A000833040F08630C1F480B78F7380BFA9E3FE
:1000B000B0E00AC092E0853089F480B78F7C80BFC1
:1000C000A6E3B0E0913099F38C91E82381E090E0D1
:1000D00011F490E080E0089591E0EDCF843021F4B8
:1000E0008FB58F738FBDECCF873019F48FB58F7CB0
:1000F000F9CF823031F48091CA008F738093CA00A7
:10010000DFCF8330E9F68091CA008F7CF7CFCF93A1
:10011000DF93E82FF0E0E45CFF4FE491833001F1DE
:10012000823029F48091CA008F738093CA00C8E39B
:10013000D0E0A2E6B0E09E2F90952FB761110BC0E2
:10014000F8948881892388838C9189238C932FBF8D
:10015000DF91CF910895F8948881E82BE883F4CF5C
:100160008091CA008F7C8093CA00CBE3D0E0A3E6E5
:10017000B0E0E1CFCF93DF9386FF04C08F739AE0A6
:10018000981B892FE82FF0E0E45CFF4FE4918B305F
:10019000E1F08330D0F08BE390E0AAE3B0E0C3E677
:1001A000D0E02E2F2095611117C04FB7F8943C91E5
:1001B00032233C93DC013C9132233C9388812823F9
:1001C00028834FBFDF91CF91089588E390E0A7E3A4
:1001D000B0E0C2E6D0E0E5CF623069F44FB7F89402
:1001E0003C9123232C93DC012C912E2B2C93888182
:1001F000E82BE883E6CF9FB7F894888128232883EB
:100200008C91E82BEC939FBFDDCF28B19091220118
:100210009295990F907E2F71922B98B999B1907CFD
:100220008F73982B99B92E9A2E99FECF86B197B1DC
:1002300008953FB7F89480911E0190911F01A091FD
:100240002001B091210122B708B600FE05C02F3F62
:1002500019F00196A11DB11D3FBFBA2FA92F982FEC
:100260008827BC01CD01620F711D811D911D43E0E6
:10027000660F771F881F991F4A95D1F708950F932E
:100280001F93CF93DF93DC011C96ED91FC91DF016E
:10029000AA5BBF4F2D913C9111972034310528F571
:1002A0000D911C911197CD91DC9120E430E0201B41
:1002B000310B4217530708F49A01DB01EC0FFD1FC5
:1002C000B9016E0F7F1FE617F70719F04D914193A3
:1002D000FACFDC011C96ED91FC91EA5BFF4F808127
:1002E0009181280F391F31832083DF91CF911F9196
:1002F0000F910895FC0184859585FC01EA5BFF4F11
:10030000208131812034310570F420813181A901AF
:100310004F5F5F4F51834083820F931FFC016083C7
:1003200081E090E0089590E080E008950895FC0158
:1003300084859585FC01E05CFF4F40815181DC01A3
:10034000AE5BBF4F2D913C914217530740F4208183
:100350003181820F931FFC01808190E008958FEF1F
:100360009FEF089561E081E005DF60E081E0CFCE9E
:1003700080913301843548F48091330190E06DE041
:1003800073E097D980959095089585E797E608954D
:100390008F929F92AF92BF92CF92DF92EF92FF9295
:1003A00081E433DFBC01990F880B990B63D820E9F6
:1003B0003BE04BE75DE312D94B015C0160913601F4
:1003C00070E090E080E054D86B017C0120E030E0E8
:1003D0004EEF52E4FFD818164CF4A701960160E0E6
:1003E00070E080E093E442D76B017C0120E030E0D4
:1003F00048EC52E4C701B601A2D7A501940137D752
:100400006B017C0104D860932601072E000C880B39
:10041000990B30D89B01AC01C701B60127D720E06A
:1004200030E048EC52E4DAD8F2D760932701C701F4
:10043000B601FF90EF90DF90CF90BF90AF909F906C
:100440008F900895CF92DF92EF92FF92CF9385E045
:1004500022DE892BD9F58091240181114AC0809137
:100460002C01882309F445C0C5B12F9A91DF6B0197
:100470007C01C5B96091310170E090E080E0F8D76F
:1004800020E030E040E251E45AD79B01AC0180917A
:100490002D01813009F5C701B6019CD81816B4F4B6
:1004A0006091340170E090E080E0E2D720E030E03D
:1004B00040E251E444D79B01AC01809134018F3F6D
:1004C000C1F0C701B60186D818169CF0CF91FF90F5
:1004D000EF90DF90CF900895C701B6017BD8181632
:1004E00044F0809134018F3F21F081E080932D0111
:1004F000EDCFCF91FF90EF90DF90CF9033CFCF92A1
:10050000DF92EF92FF920F931F93CF93DF9381E4DB
:100510007CDE8C0182E479DEEC01B801110F880BDE
:10052000990BA8D720E93BE04BE75DE357D86B0177
:100530007C01BE01DD0F880B990B9CD720E93BE0C5
:100540004BE75DE34BD89B01AC01C1E0C701B601AD
:1005500041D818160CF0C0E0C0932C01DF91CF9168
:100560001F910F91FF90EF90DF90CF9008954F92E1
:100570005F926F927F928F929F92AF92BF92CF9233
:10058000DF92EF92FF9280911001833019F1CCF449
:100590008130F1F0E09110010E2E000CFF0BEB5DAD
:1005A000FE4F608180E991E0FF90EF90DF90CF9067
:1005B000BF90AF909F908F907F906F905F904F9083
:1005C00099CE853009F463C0873021F798DFE2CFF8
:1005D000DFDEE0CF82E419DEBC01990F880B990BB6
:1005E00049D720E93BE04BE75DE3F8D74B015C01DD
:1005F00083E40BDEBC01990F880B990B3BD729E0F4
:1006000030EF4CE85AE3EAD72B013C016091370107
:1006100070E090E080E02CD76B017C0120E030E0BE
:100620004EEF52E4D7D718164CF4A701960160E0BC
:1006300070E080E093E41AD66B017C01A301920183
:10064000C501B40113D64B015C0120E030E048EC59
:1006500052E4C701B60173D6A501940108D66B0117
:100660007C01D5D660932801072E000C880B990BCE
:1006700001D79B01AC01C701B601F8D520E030E0FD
:1006800048EC52E4ABD7C3D66093290183CF83E40F
:10069000BCDDBC01990F880B990BECD629E030EF3B
:1006A0004CE85AE39BD74B015C016091380170E044
:1006B00090E080E0DDD66B017C0120E030E04EEF81
:1006C00052E488D718164CF4A701960160E070E058
:1006D00080E093E4CBD56B017C012DEC3CEC4CE449
:1006E0005DE3C501B4012BD64B015C0120E030E095
:1006F00048EC52E4C701B60122D69B01AC01C5010A
:10070000B401B5D56B017C0182D660932A01072E16
:10071000000C880B990BAED69B01AC01C701B6014A
:10072000A5D520E030E048EC52E458D770D660936D
:100730002B0130CF0F931F93CF93DF938C01D0E029
:10074000C0E0C017D10729F061E082E0E0DC21962B
:10075000F8CFDF91CF911F910F91089581E08093A1
:10076000240161E083E0D3DCCACE1092240160E072
:1007700083E0CDCC1FBC1EBC8EB584608EBD8EB513
:1007800081608EBD709AF4DD9DBD8CBD789A089510
:10079000CF92DF92EF92FF92CF93DF9378982F98CA
:1007A00085B7877E806185BFF89481B5806481BDFF
:1007B0008091300198E08A3010F49091300121B599
:1007C000892F880F880F8072977F892B822B81BD9C
:1007D000789485B7806285BF789481E08093110119
:1007E000889580911101882309F44DC02BDE8091FA
:1007F0003201882351F08091320190E064E670E08C
:1008000058D798DF60E082E082DC80913501882350
:1008100091F08091350190E06AE070E04AD77C0168
:10082000D0E0C0E0CE15DF0529F061E083E06FDCA9
:100830002196F8CF9ADF80912C01813021F58091AB
:100840002D01813021F0809131018F3FE1F48091C1
:1008500034018F3FC1F02F9A9BDD6B017C012F98F3
:100860006091340170E090E080E002D620E030E05A
:1008700040E251E464D59B01AC01C701B601AAD6A0
:1008800087FF10921101809111018111A9CFF89475
:1008900085B78F7D85BF11BC2F9A6CDF789462E09D
:1008A00084E068DC62E086E065DC1092230110924F
:1008B000160181E08093180151DF5ADD9DBD8CBD8A
:1008C000DF91CF91FF90EF90DF90CF900895FC01E2
:1008D00084859585FC01E05CFF4F40815181DC01FE
:1008E000AE5BBF4F2D913C914217530768F42081B6
:1008F0003181A9014F5F5F4F51834083820F931F66
:10090000FC01808190E008958FEF9FEF0895FC0136
:1009100024853585F901EE5BFF4F80819181205C54
:100920003F4FF90120813181821B930B089566238B
:1009300051F080E991E0EBDF892B29F080E991E02B
:10094000C6DF8093100181E008951F93CF93DF935A
:10095000EC01162F75D4181731F0612FCE01DF91FD
:10096000CF911F9175C4DF91CF911F91089580E9B8
:1009700091E0CDDF892BD9F080E991E0A8DF809369
:10098000100180E991E0C3DF892B89F080E991E0D3
:100990009EDF682F90911001892F990F990BFC0110
:1009A000EB5DFE4F6083893091050CF0CECF08954A
:1009B0001F920F920FB60F9211242F933F938F9394
:1009C0009F93AF93BF9380911A0190911B01A091C7
:1009D0001C01B0911D013091190126E0230F2D3724
:1009E00068F129E8230F0396A11DB11D2093190179
:1009F00080931A0190931B01A0931C01B0931D01D9
:100A000080911E0190911F01A0912001B0912101C0
:100A10000196A11DB11D80931E0190931F01A0930B
:100A20002001B0932101BF91AF919F918F913F9190
:100A30002F910F900FBE0F901F9018950296A11D39
:100A4000B11DD4CF1F920F920FB60F9211242F9386
:100A50003F934F935F936F937F938F939F93AF9346
:100A6000BF93CF93EF93FF93C091A3008C2F8C7013
:100A700019F18FEF80938501809186019091870114
:100A80009F7790938701809386018091A300846C67
:100A90008093A300FF91EF91CF91BF91AF919F9170
:100AA0008F917F916F915F914F913F912F910F9017
:100AB0000FBE0F901F901895C6FD28C0809186012B
:100AC0009091870197FD22C0C7FF6FC0C1FFAFC0E3
:100AD0002091810130918201809183019091840164
:100AE0002817390708F0A1C08091810190918201F7
:100AF0009C012F5F3F4F3093820120938101835CE3
:100B00009E4FFC0180818093A0004FC0C0FF66C053
:100B1000809186019091870197FF29C0809186017D
:100B2000909187012091A0009695982F88279795FE
:100B3000879588279370822B9093870180938601F5
:100B4000E0918801F0918901309789F110927E013E
:100B500010927D01609185018091860190918701BD
:100B60000995811124C087E08093A40093CF8091E0
:100B7000A00090E090938701809386018091850189
:100B80008F5F809385018091860190918701897F95
:100B90009927803F9105A1F6809186019091870168
:100BA0009068909387018093860183E0DDCFC1FF39
:100BB00010C01092840110928301E0918C01F09199
:100BC0008D01309709F009951092820110928101F0
:100BD000ECCF1092800110927F01E7CFC1FF15C0CA
:100BE000E0918E01F0918F01309709F009958FEF18
:100BF0008093850180918601909187019F779093E2
:100C000087018093860180E443CFE0918A01F091CF
:100C10008B01309761F310927E0110927D018091DB
:100C20007F01909180010995E2CF82E09DCF809174
:100C30007F01909180018034910590F480917F0133
:100C4000909180019C012F5F3F4F30938001209352
:100C50007F012091A000835C9E4FFC012083A5CFE3
:100C600086E082CF1F920F920FB60F9211242F931E
:100C70003F934F935F936F937F938F939F93AF9324
:100C8000BF93EF93FF93E0919E01F0919F0109952F
:100C9000FF91EF91BF91AF919F918F917F916F9154
:100CA0005F914F913F912F910F900FBE0F901F902A
:100CB00018951F920F920FB60F9211242F933F9306
:100CC0004F935F936F937F938F939F93AF93BF9354
:100CD000EF93FF93E091A701F091A8010995FF918F
:100CE000EF91BF91AF919F918F917F916F915F91A4
:100CF0004F913F912F910F900FBE0F901F9018951D
:100D00001F920F920FB60F9211242F933F934F9380
:100D10005F936F937F938F939F93AF93BF93EF9363
:100D2000FF9326DB9DBD8CBD80911801882341F087
:100D300081E0B1D9892B21F481E08093170115DD81
:100D400080911601882349F08AE0A5D90197B1F472
:100D50001092160181E090E0EDDCFF91EF91BF91E0
:100D6000AF919F918F917F916F915F914F913F9143
:100D70002F910F900FBE0F901F901895F6DC08DD95
:100D8000ECCF1F920F920FB60F921124CF92DF92E9
:100D9000EF92FF922F933F934F935F936F937F93C5
:100DA0008F939F93AF93BF93CF93DF93EF93FF9373
:100DB000C0901201D0901301E0901401F090150141
:100DC00038DA6093120170931301809314019093A9
:100DD00015018091120190911301A0911401B0911D
:100DE00015018C199D09AE09BF090A97A105B10526
:100DF00038F0809117018823D1F010921701C8DCD8
:100E0000FF91EF91DF91CF91BF91AF919F918F9122
:100E10007F916F915F914F913F912F91FF90EF9054
:100E2000DF90CF900F900FBE0F901F90189581E02C
:100E300032D9892B61F562E081E09CD981E090E0B4
:100E400079DC109211018091180181110CC0CCB590
:100E5000DDB58EDAC81BD90BC938D34120F081E04B
:100E6000809318017BDC84DA9DBD8CBD80E013D9B2
:100E7000019731F680912301811102C010922D015A
:100E800081E08093230160E082E041D9B9CF1092E4
:100E90001801ECCF1F920F920FB60F9211242F93CF
:100EA0003F934F935F936F937F938F939F93AF93F2
:100EB000BF93EF93FF9380912301882379F08AE019
:100EC000EAD8892B59F41092230181E0809316010E
:100ED00060E082E01CD94CDA9DBD8CBDB3DAFF9195
:100EE000EF91BF91AF919F918F917F916F915F91A2
:100EF0004F913F912F910F900FBE0F901F9018951B
:100F00001F920F920FB60F9211240F900FBE0F90E9
:100F10001F901895E0E9F1E01382128288EE93E0C9
:100F2000A0E0B0E084839583A683B78384E091E05A
:100F3000918380838DE391E095878487E7EAF1E0F0
:100F4000128213828AE290E0958384838BE290E0A0
:100F500097838683EEE9F1E0128213828CE290E0BF
:100F6000958384838DE290E09783868308957894B7
:100F700080B7836080BF83B7877F83BF83B7887F55
:100F8000836083BF89B7816089BF8091C900887FF2
:100F90008093C9008091CA008C7F81608093CA00D1
:100FA0008091C900877E8093C9008091C900887FA5
:100FB00083608093C9008EB5887F8EBD8FB58C7F8E
:100FC00081608FBD8EB5877E8EBD8EB5887F836034
:100FD0008EBD80E18093670084EA809368008CEF87
:100FE0008093660085B1887F866085B92F9A60E01E
:100FF00080E0C0D862E081E0BDD861E082E0BAD88C
:1010000061E083E0B7D862E085E0B4D860E08AE0D0
:10101000B1D860E081E4AED860E082E4ABD860E0B3
:1010200083E4A8D862E084E0A5D862E086E0A2D894
:101030009CDB81E08093220182E280932501109263
:101040002601109227011092280110922901109276
:101050002A0110922B0110922C0110922D0189E689
:1010600080932E0110922F0188E0809330018FEF42
:101070008093310194E69093320192E3909333018F
:10108000809334011092350184E18093360180937E
:1010900037011092380167E590E080E056DC69E6A0
:1010A00081E090E052DC64E782E090E04EDC64E7AF
:1010B00083E090E04ADC69E784E090E046DC60E5AC
:1010C00085E090E042DC69E686E090E03EDC63E3A8
:1010D00087E090E03ADC60E088E090E036DCC9E050
:1010E000D0E0CE01ADD0FE01EB5DFE4F8F3F09F0A9
:1010F000A0C06081CE0129DC2196C431D10589F7D9
:1011000080912E01883008F496C080912E01883796
:1011100008F091C080912E0120919C0130919D0199
:10112000880F8093A2001092A100F901E85BFF4FA5
:101130008FEF80838CEB8093A500339687E994E052
:1011400091838083329687EB94E091838083215B47
:101150003F4F87EB92E0F90191838083F89480E31D
:101160008BBF83E080BD81E282BB04DB78948091F9
:101170002F01813009F062C0F1DA5BD8C0903901EB
:10118000D0903A01E0903B01F0903C016C157D0558
:101190008E059F05C0F0C0903901D0903A01E090D3
:1011A0003B01F0903C019B01AC012C193D094E091B
:1011B0005F0969017A0130E4C31632E4D3063FE0E7
:1011C000E306F104D0F26093390170933A01809301
:1011D0003B0190933C01C0912C01C13071F680918C
:1011E0002401882351F280912301882331F28091D8
:1011F0002D018111C2CF809131018F3F09F4BDCF04
:10120000C7D86B017C016091310170E090E080E013
:101210002FD120E030E040E251E491D09B01AC01BD
:10122000C701B60188D087FFA8CFC0932D019AD8F7
:10123000A4CF808361CF89E690E06ECFA9DA9DCFFD
:10124000E199FECF9FBB8EBBE09A99278DB308959D
:10125000262FE199FECF1CBA9FBB8EBB2DBB0FB6CC
:10126000F894E29AE19A0FBE019608955058BB2770
:10127000AA270ED075C166D130F06BD120F031F4C1
:101280009F3F11F41EF45BC10EF4E095E7FB51C1E2
:10129000E92F77D180F3BA176207730784079507A0
:1012A00018F071F49EF58FC10EF4E0950B2EBA2F55
:1012B000A02D0B01B90190010C01CA01A00111245C
:1012C000FF27591B99F0593F50F4503E68F11A1608
:1012D000F040A22F232F342F4427585FF3CF469599
:1012E00037952795A795F0405395C9F77EF41F16BB
:1012F000BA0B620B730B840BBAF09150A1F0FF0F85
:10130000BB1F661F771F881FC2F70EC0BA0F621F70
:10131000731F841F48F4879577956795B795F79560
:101320009E3F08F0B3CF9395880F08F09927EE0FF2
:10133000979587950895D9D008F481E008950CD049
:101340000FC107D140F0FED030F021F45F3F19F01B
:10135000F0C0511139C1F3C014D198F39923C9F3E6
:101360005523B1F3951B550BBB27AA2762177307AB
:10137000840738F09F5F5F4F220F331F441FAA1F5F
:10138000A9F333D00E2E3AF0E0E830D0915050401F
:10139000E695001CCAF729D0FE2F27D0660F771FCD
:1013A000881FBB1F261737074807AB07B0E809F0AF
:1013B000BB0B802DBF01FF2793585F4F2AF09E3F44
:1013C000510568F0B6C000C15F3FECF3983EDCF316
:1013D000869577956795B795F7959F5FC9F7880FBD
:1013E000911D9695879597F90895E1E0660F771F0F
:1013F000881FBB1F621773078407BA0720F0621BA0
:10140000730B840BBA0BEE1F88F7E095089504D098
:101410006894B111D9C00895BCD088F09F5790F05E
:10142000B92F9927B751A0F0D1F0660F771F881F09
:10143000991F1AF0BA95C9F712C0B13081F0C3D024
:10144000B1E00895C0C0672F782F8827B85F39F0C2
:10145000B93FCCF3869577956795B395D9F73EF468
:1014600090958095709561957F4F8F4F9F4F089510
:10147000E89409C097FB3EF490958095709561952E
:101480007F4F8F4F9F4F9923A9F0F92F96E9BB27E4
:101490009395F695879577956795B795F111F8CF60
:1014A000FAF4BB0F11F460FF1BC06F5F7F4F8F4FCB
:1014B0009F4F16C0882311F096E911C0772321F0C1
:1014C0009EE8872F762F05C0662371F096E8862F59
:1014D00070E060E02AF09A95660F771F881FDAF7B0
:1014E000880F9695879597F90895990F0008550FDD
:1014F000AA0BE0E8FEEF16161706E807F907C0F09A
:1015000012161306E407F50798F0621B730B840BA1
:10151000950B39F40A2661F0232B242B252B21F47B
:1015200008950A2609F4A140A6958FEF811D811D1B
:10153000089597F99F6780E870E060E008959FEF55
:1015400080EC089500240A9416161706180609065A
:10155000089500240A941216130614060506089529
:10156000092E0394000C11F4882352F0BB0F40F4B1
:10157000BF2B11F460FF04C06F5F7F4F8F4F9F4FF1
:10158000089557FD9058440F551F59F05F3F71F073
:101590004795880F97FB991F61F09F3F79F08795DA
:1015A0000895121613061406551FF2CF4695F1DF63
:1015B00008C0161617061806991FF1CF86957105F3
:1015C000610508940895E894BB2766277727CB0127
:1015D00097F908958ADF08F48FEF08950AD0C0CFF5
:1015E000B1DF28F0B6DF18F0952309F0A2CFA7CF1E
:1015F000EBCFC7DFA8F39923D9F35523C9F3950F90
:1016000050E0551FAA27EE27FF27BB270024089488
:10161000679520F4E20FF31FB41F0A1E220F331F39
:10162000441FAA1F6695A9F7779530F4F30FB41FEE
:101630000A1E121E08F46395330F441FAA1F221FAF
:10164000769599F7879520F4B40F0A1E121E631F32
:10165000440FAA1F221F331F8695A9F7862F712DCD
:10166000602D11249F5750408AF0E1F088234AF002
:10167000EE0FFF1FBB1F661F771F881F9150504042
:10168000A9F79E3F510570F054CF9ECF5F3FECF31A
:10169000983EDCF3869577956795B795F795E7952E
:1016A0009F5FC1F7FE2B880F911D9695879597F93F
:1016B00008950024552704C0080E591F880F991F4C
:1016C000009729F076956795B8F37105B9F7802DE5
:1016D000952F0895EE0FFF1F0590F491E02D0994CA
:0416E000F894FFCFAC
:1016E400000000007A013F01870467049701960116
:00000001FF
