:1000000024C048C0F5C678C628C744C043C042C013
:1000100030C640C03FC0D4C43DC03CC03BC03AC065
:1000200039C038C037C036C035C034C033C032C024
:1000300031C030C02FC02EC02DC00CC501020480BD
:100040004020100804020108370711241FBECFEF1B
:10005000D2E0DEBFCDBF11E0A0E0B1E0EEEFF5E110
:1000600002C005900D92A031B107D9F721E0A0E1BF
:10007000B1E001C01D92A038B207E1F710E0C5E27F
:10008000D0E003C02197FE01B2DAC432D107D1F724
:1000900003D7B3CAB5CFE82FF0E0E45CFF4FE4919B
:1000A000833040F08630C1F480B78F7380BFA9E3FE
:1000B000B0E00AC092E0853089F480B78F7C80BFC1
:1000C000A6E3B0E0913099F38C91E82381E090E0D1
:1000D00011F490E080E0089591E0EDCF843021F4B8
:1000E0008FB58F738FBDECCF873019F48FB58F7CB0
:1000F000F9CF823031F48091CA008F738093CA00A7
:10010000DFCF8330E9F68091CA008F7CF7CFCF93A1
:10011000DF93E82FF0E0E45CFF4FE491833001F1DE
:10012000823029F48091CA008F738093CA00C8E39B
:10013000D0E0A2E6B0E09E2F90952FB761110BC0E2
:10014000F8948881892388838C9189238C932FBF8D
:10015000DF91CF910895F8948881E82BE883F4CF5C
:100160008091CA008F7C8093CA00CBE3D0E0A3E6E5
:10017000B0E0E1CFCF93DF9386FF04C08F739AE0A6
:10018000981B892FE82FF0E0E45CFF4FE4918B305F
:10019000E1F08330D0F08BE390E0AAE3B0E0C3E677
:1001A000D0E02E2F2095611117C04FB7F8943C91E5
:1001B00032233C93DC013C9132233C9388812823F9
:1001C00028834FBFDF91CF91089588E390E0A7E3A4
:1001D000B0E0C2E6D0E0E5CF623069F44FB7F89402
:1001E0003C9123232C93DC012C912E2B2C93888182
:1001F000E82BE883E6CF9FB7F894888128232883EB
:100200008C91E82BEC939FBFDDCF28B19091240116
:100210009295990F907E2F71922B98B999B1907CFD
:100220008F73982B99B92E9A2E99FECF86B197B1DC
:1002300008953FB7F8948091200190912101A091F9
:100240002201B091230122B708B600FE05C02F3F5E
:1002500019F00196A11DB11D3FBFBA2FA92F982FEC
:100260008827BC01CD01620F711D811D911D43E0E6
:10027000660F771F881F991F4A95D1F70895CF936E
:10028000DF93DC011C96ED91FC9126A137A1203271
:10029000310510F5A6A1B7A1C6A1D7A120E230E093
:1002A0002A1B3B0B4217530708F49A01DB01EC0FA2
:1002B000FD1FB9016E0F7F1FE617F70719F04D916B
:1002C0004193FACFDC011C96ED91FC9186A197A198
:1002D000280F391F37A326A3DF91CF910895DC01A2
:1002E0001C96ED91FC9186A197A1809768F486A158
:1002F00097A19C012F5F3F4F37A326A3E80FF91F5B
:10030000608381E090E0089590E080E00895089592
:10031000DC011C96ED91FC9120A131A182A193A159
:100320002817390738F480A191A1E80FF91F8081BF
:1003300090E008958FEF9FEF089561E081E01ADF6C
:1003400060E081E0E4CE882339F08091350190E0CF
:1003500090931801809317018091170190911801D3
:1003600084359105A0F48091170190911801209196
:10037000170130911801281B390B30931801209375
:1003800017016DE073E022D980959095089583E57B
:1003900090E0EDCF8F929F92AF92BF92CF92DF927B
:1003A000EF92FF9281E431DFBC01990F880B990B2A
:1003B000EED720E93BE04BE75DE39DD84B015C01C4
:1003C0006091380170E090E080E0DFD76B017C0144
:1003D00020E030E04EEF52E48AD818164CF4A70122
:1003E000960160E070E080E093E4CDD66B017C0183
:1003F00020E030E048EC52E4C701B6012DD7A5015A
:100400009401C2D66B017C018FD760932801072E1F
:10041000000C880B990BBBD79B01AC01C701B6013F
:10042000B2D620E030E048EC52E465D87DD7609346
:100430002901C701B601FF90EF90DF90CF90BF90E8
:10044000AF909F908F900895CF92DF92EF92FF929E
:10045000CF9385E020DE892BD9F58091260181118B
:100460004AC080912E01882309F445C0C5B12F9A56
:1004700091DF6B017C01C5B96091330170E090E0C0
:1004800080E083D720E030E040E251E4E5D69B01F4
:10049000AC0180912F01813009F5C701B60127D841
:1004A0001816B4F46091360170E090E080E06DD7EA
:1004B00020E030E040E251E4CFD69B01AC018091D6
:1004C00036018F3FC1F0C701B60111D818169CF054
:1004D000CF91FF90EF90DF90CF900895C701B601C4
:1004E00006D8181644F0809136018F3F21F081E044
:1004F00080932F01EDCFCF91FF90EF90DF90CF90C1
:100500001CCFCF92DF92EF92FF920F931F93CF9366
:10051000DF9381E47ADE8C0182E477DEEC01B801BE
:10052000110F880B990B33D720E93BE04BE75DE3D4
:10053000E2D76B017C01BE01DD0F880B990B27D739
:1005400020E93BE04BE75DE3D6D79B01AC01C1E07E
:10055000C701B601CCD718160CF0C0E0C0932E012D
:10056000DF91CF911F910F91FF90EF90DF90CF908F
:1005700008954F925F926F927F928F929F92AF9267
:10058000BF92CF92DF92EF92FF9280911001833061
:1005900019F1CCF48130F1F0E09110010E2E000C35
:1005A000FF0BE95DFE4F608182E791E0FF90EF90E5
:1005B000DF90CF90BF90AF909F908F907F906F9083
:1005C0005F904F908CCE853009F463C0873021F75F
:1005D00098DFE2CFDFDEE0CF82E417DEBC01990FC7
:1005E000880B990BD4D620E93BE04BE75DE383D73A
:1005F0004B015C0183E409DEBC01990F880B990B68
:10060000C6D629E030EF4CE85AE375D72B013C0100
:100610006091390170E090E080E0B7D66B017C0119
:1006200020E030E04EEF52E462D718164CF4A701F8
:10063000960160E070E080E093E4A5D56B017C0159
:10064000A3019201C501B4019ED54B015C0120E0DC
:1006500030E048EC52E4C701B601FED5A501940193
:1006600093D56B017C0160D660932A01072E000CA4
:10067000880B990B8CD69B01AC01C701B60183D5C1
:1006800020E030E048EC52E436D74ED660932B01A0
:1006900083CF83E4BADDBC01990F880B990B77D621
:1006A00029E030EF4CE85AE326D74B015C0160911A
:1006B0003A0170E090E080E068D66B017C0120E0B8
:1006C00030E04EEF52E413D718164CF4A701960110
:1006D00060E070E080E093E456D56B017C012DEC86
:1006E0003CEC4CE45DE3C501B401B6D54B015C01C3
:1006F00020E030E048EC52E4C701B601ADD59B01E3
:10070000AC01C501B40140D56B017C010DD66093ED
:100710002C01072E000C880B990B39D69B01AC01DC
:10072000C701B60130D520E030E048EC52E4E3D612
:10073000FBD560932D0130CF60E082E0E8CC0F93D1
:100740001F93CF93DF938C01D0E0C0E0C017D10797
:1007500029F061E082E0DBDC2196F8CFDF91CF91D8
:100760001F910F91089581E08093260161E083E05D
:10077000CEDCC7CE1092260160E083E0C8CC809129
:100780001A01882349F081E086DC892B29F481E075
:1007900080931901EFDFD0CF08951FBC1EBC8EB52A
:1007A00084608EBD8EB581608EBD709A81E0CBDD98
:1007B0009DBD8CBD789A0895CF92DF92EF92FF9203
:1007C000CF93DF9378982F9885B7877E806185BF18
:1007D000F89481B5806481BD8091320198E08A30BF
:1007E00010F49091320121B5892F880F880F807203
:1007F000977F892B822B81BD789485B7806285BFD6
:10080000789481E08093110188958091110188236B
:1008100009F44BC019DE80913401882341F08091A6
:10082000340190E064E670E0D1D689DF85DF809105
:100830003701882391F08091370190E06AE070E001
:10084000C5D67C01D0E0C0E0CE15DF0529F061E01F
:1008500083E05DDC2196F8CF8DDF80912E01813021
:1008600021F580912F01813021F0809133018F3F5C
:10087000E1F4809136018F3FC1F02F9A8BDD6B013F
:100880007C012F986091360170E090E080E07DD58A
:1008900020E030E040E251E4DFD49B01AC01C7012D
:1008A000B60125D687FF10921101809111018111A7
:1008B000ABCFF89485B78F7D85BF11BC2F9A6DDFC4
:1008C000789462E084E056DC62E086E053DC1092CB
:1008D00025011092160181E080931A0144DF81E026
:1008E00032DD9DBD8CBDDF91CF91FF90EF90DF9009
:1008F000CF900895DC011C96ED91FC9120A131A1CF
:1009000082A193A12817390760F480A191A19C01CD
:100910002F5F3F4F31A320A3E80FF91F808190E0A4
:1009200008958FEF9FEF0895DC011C96ED91FC91E7
:1009300082A193A120A131A1821B930B089566236C
:1009400051F082E791E0F0DF892B29F082E791E016
:10095000D1DF8093100181E008951F93CF93DF933F
:10096000EC01162FFAD3181731F0612FCE01DF9169
:10097000CF911F91FAC3DF91CF911F91089582E724
:1009800091E0D2DF892BD9F082E791E0B3DF809349
:10099000100182E791E0C8DF892B89F082E791E0BE
:1009A000A9DF682F90911001892F990F990BFC01F5
:1009B000E95DFE4F6083893091050CF0CECF08953C
:1009C0001F920F920FB60F9211242F933F938F9384
:1009D0009F93AF93BF9380911C0190911D01A091B3
:1009E0001E01B0911F0130911B0126E0230F2D370E
:1009F00068F129E8230F0396A11DB11D20931B0167
:100A000080931C0190931D01A0931E01B0931F01C0
:100A10008091200190912101A0912201B0912301A8
:100A20000196A11DB11D8093200190932101A093F7
:100A30002201B0932301BF91AF919F918F913F917C
:100A40002F910F900FBE0F901F9018950296A11D29
:100A5000B11DD4CF1F920F920FB60F9211242F9376
:100A60003F934F935F936F937F938F939F93AF9336
:100A7000BF93CF93EF93FF93C091A3008C2F8C7003
:100A800019F18FEF8093670180916801909169015E
:100A90009F7790936901809368018091A300846C93
:100AA0008093A300FF91EF91CF91BF91AF919F9160
:100AB0008F917F916F915F914F913F912F910F9007
:100AC0000FBE0F901F901895C6FD28C08091680139
:100AD0009091690197FD22C0C7FF6FC0C1FFAFC0F1
:100AE00020916301309164018091650190916601CC
:100AF0002817390708F0A1C0809163019091640123
:100B00009C012F5F3F4F3093640120936301815C10
:100B10009E4FFC0180818093A0004FC0C0FF66C043
:100B2000809168019091690197FF29C080916801C7
:100B3000909169012091A0009695982F882797950C
:100B4000879588279370822B909369018093680121
:100B5000E0916A01F0916B01309789F11092600188
:100B600010925F0160916701809168019091690125
:100B70000995811124C087E08093A40093CF8091D0
:100B8000A00090E0909369018093680180916701D3
:100B90008F5F809367018091680190916901897FDF
:100BA0009927803F9105A1F6809168019091690194
:100BB0009068909369018093680183E0DDCFC1FF65
:100BC00010C01092660110926501E0916E01F091E3
:100BD0006F01309709F0099510926401109263013A
:100BE000ECCF1092620110926101E7CFC1FF15C0F6
:100BF000E0917001F0917101309709F009958FEF44
:100C00008093670180916801909169019F7790932B
:100C100069018093680180E443CFE0916C01F09119
:100C20006D01309761F31092600110925F01809125
:100C30006101909162010995E2CF82E09DCF8091A0
:100C4000610190916201809790F48091610190918F
:100C500062019C012F5F3F4F30936201209361013D
:100C60002091A000815C9E4FFC012083A6CF86E0EE
:100C700083CF1F920F920FB60F9211242F933F93A1
:100C80004F935F936F937F938F939F93AF93BF9394
:100C9000EF93FF938091170190911801892B31F503
:100CA00081E051DB9DBD8CBD6ADD809116018823FA
:100CB00049F08AE0F0D90197B1F41092160181E071
:100CC00090E03DDDFF91EF91BF91AF919F918F91AA
:100CD0007F916F915F914F913F912F910F900FBE38
:100CE0000F901F90189546DD67DDECCF80E02BDB81
:100CF0009DBD8CBD44DDE6CF1F920F920FB60F92C3
:100D00001124CF92DF92EF92FF922F933F934F9354
:100D10005F936F937F938F939F93AF93BF93EF9363
:100D2000FF93C0901201D0901301E0901401F09055
:100D300015017FDA609312017093130180931401FF
:100D4000909315018091120190911301A0911401CB
:100D5000B09115018C199D09AE09BF090A97A1052B
:100D6000B10538F0809119018823C1F01092190162
:100D700023DDFF91EF91BF91AF919F918F917F9173
:100D80006F915F914F913F912F91FF90EF90DF9086
:100D9000CF900F900FBE0F901F90189581E07BD9D8
:100DA000892B19F562E081E0E5D981E090E0C7DCAC
:100DB0001092110180911A01811104C081E0809389
:100DC0001A01D1DC81E0BFDA9DBD8CBD80E063D922
:100DD000019779F680912501811102C010922F01AF
:100DE00081E080932501A8DCC4CF10921A01EECFD8
:100DF0001F920F920FB60F9211242F933F934F9390
:100E00005F936F937F938F939F93AF93BF93EF9372
:100E1000FF9380912501882371F08AE03CD9892BCA
:100E200051F41092250181E08093160185DC81E068
:100E30008ADA9DBD8CBD08DBFF91EF91BF91AF9128
:100E40009F918F917F916F915F914F913F912F91E2
:100E50000F900FBE0F901F9018951F920F920FB614
:100E60000F9211240F900FBE0F901F901895E2E77C
:100E7000F1E01382128288EE93E0A0E0B0E0848378
:100E80009583A683B78384E091E0918380838FE389
:100E900091E0958784870895789480B7836080BFB8
:100EA00083B7877F83BF83B7887F836083BF89B71A
:100EB000816089BF8091C900887F8093C90080913B
:100EC000CA008C7F81608093CA008091C900877EB0
:100ED0008093C9008091C900887F83608093C90096
:100EE0008EB5887F8EBD8FB58C7F81608FBD8EB5AE
:100EF000877E8EBD8EB5887F83608EBD80E18093B6
:100F0000670084EA809368008CEF8093660085B167
:100F1000887F866085B92F9A60E080E02BD962E0F7
:100F200081E028D961E082E025D961E083E022D91F
:100F300062E085E01FD960E08AE01CD960E081E4CE
:100F400019D960E082E416D960E083E413D962E045
:100F500084E010D962E086E00DD90CDC81E080935A
:100F6000240183E280932701109228011092290125
:100F700010922A0110922B0110922C0110922D0137
:100F800010922E0110922F0189E680933001109269
:100F9000310188E0809332018FEF8093330194E632
:100FA0009093340192E3909335018093360110922F
:100FB000370184E1809338018093390110923A011E
:100FC00067E590E080E0C9DC69E681E090E0C5DC9F
:100FD00064E782E090E0C1DC64E783E090E0BDDCA0
:100FE00069E784E090E0B9DC60E585E090E0B5DC9D
:100FF00069E686E090E0B1DC63E387E090E0ADDC99
:1010000060E088E090E0A9DCC9E0D0E0CE01A5D0A6
:10101000FE01E95DFE4F8F3F09F098C06081CE016F
:101020009CDC2196C431D10589F78091300188304C
:1010300008F48EC080913001883708F089C0809113
:101040003001E0917E01F0917F01880F8093A20032
:101050001092A1008FEF80A78CEB8093A5008FE901
:1010600094E094A783A78FEB94E096A785A789EBDC
:1010700092E090AB87A7F89480E38BBF83E080BDBC
:1010800081E282BB8ADB789480913101813009F062
:1010900062C069DBCED8C0903B01D0903C01E090AB
:1010A0003D01F0903E016C157D058E059F05C0F059
:1010B000C0903B01D0903C01E0903D01F0903E019A
:1010C0009B01AC012C193D094E095F0969017A01A8
:1010D00030E4C31632E4D3063FE0E306F104D0F275
:1010E00060933B0170933C0180933D0190933E01DE
:1010F000C0912E01C13071F680912601882351F2F2
:1011000080912501882331F280912F018111C2CF76
:10111000809133018F3F09F4BDCF3CD96B017C0135
:101120006091330170E090E080E02FD120E030E06A
:1011300040E251E491D09B01AC01C701B60188D0D7
:1011400087FFA8CFC0932F01F8D8A4CF808369CFA1
:1011500089E690E076CF30DB9DCFE199FECF9FBB53
:101160008EBBE09A99278DB30895262FE199FECF83
:101170001CBA9FBB8EBB2DBB0FB6F894E29AE19AC6
:101180000FBE019608955058BB27AA270ED075C1EF
:1011900066D130F06BD120F031F49F3F11F41EF492
:1011A0005BC10EF4E095E7FB51C1E92F77D180F3E5
:1011B000BA17620773078407950718F071F49EF554
:1011C0008FC10EF4E0950B2EBA2FA02D0B01B901A3
:1011D00090010C01CA01A0011124FF27591B99F0AD
:1011E000593F50F4503E68F11A16F040A22F232FB9
:1011F000342F4427585FF3CF469537952795A79509
:10120000F0405395C9F77EF41F16BA0B620B730BAF
:10121000840BBAF09150A1F0FF0FBB1F661F771F20
:10122000881FC2F70EC0BA0F621F731F841F48F4D5
:10123000879577956795B795F7959E3F08F0B3CF5B
:101240009395880F08F09927EE0F97958795089545
:10125000D9D008F481E008950CD00FC107D140F037
:10126000FED030F021F45F3F19F0F0C0511139C1C8
:10127000F3C014D198F39923C9F35523B1F3951B07
:10128000550BBB27AA2762177307840738F09F5FA7
:101290005F4F220F331F441FAA1FA9F333D00E2E16
:1012A0003AF0E0E830D091505040E695001CCAF783
:1012B00029D0FE2F27D0660F771F881FBB1F261748
:1012C00037074807AB07B0E809F0BB0B802DBF011B
:1012D000FF2793585F4F2AF09E3F510568F0B6C034
:1012E00000C15F3FECF3983EDCF3869577956795F8
:1012F000B795F7959F5FC9F7880F911D96958795CC
:1013000097F90895E1E0660F771F881FBB1F6217EA
:1013100073078407BA0720F0621B730B840BBA0BA8
:10132000EE1F88F7E095089504D06894B111D9C0F4
:101330000895BCD088F09F5790F0B92F9927B751E6
:10134000A0F0D1F0660F771F881F991F1AF0BA9589
:10135000C9F712C0B13081F0C3D0B1E00895C0C068
:10136000672F782F8827B85F39F0B93FCCF386957F
:1013700077956795B395D9F73EF4909580957095DC
:1013800061957F4F8F4F9F4F0895E89409C097FB59
:101390003EF490958095709561957F4F8F4F9F4F4C
:1013A0009923A9F0F92F96E9BB279395F695879590
:1013B00077956795B795F111F8CFFAF4BB0F11F453
:1013C00060FF1BC06F5F7F4F8F4F9F4F16C08823FA
:1013D00011F096E911C0772321F09EE8872F762F30
:1013E00005C0662371F096E8862F70E060E02AF071
:1013F0009A95660F771F881FDAF7880F969587955D
:1014000097F90895990F0008550FAA0BE0E8FEEF31
:1014100016161706E807F907C0F012161306E407B8
:10142000F50798F0621B730B840B950B39F40A26B1
:1014300061F0232B242B252B21F408950A2609F48F
:10144000A140A6958FEF811D811D089597F99F6793
:1014500080E870E060E008959FEF80EC089500243C
:101460000A941616170618060906089500240A9409
:1014700012161306140605060895092E0394000C8F
:1014800011F4882352F0BB0F40F4BF2B11F460FF1E
:1014900004C06F5F7F4F8F4F9F4F089557FD905847
:1014A000440F551F59F05F3F71F04795880F97FB28
:1014B000991F61F09F3F79F08795089512161306E2
:1014C0001406551FF2CF4695F1DF08C01616170611
:1014D0001806991FF1CF8695710561050894089546
:1014E000E894BB2766277727CB0197F908958ADF11
:1014F00008F48FEF08950AD0C0CFB1DF28F0B6DF2F
:1015000018F0952309F0A2CFA7CFEBCFC7DFA8F340
:101510009923D9F35523C9F3950F50E0551FAA27F6
:10152000EE27FF27BB2700240894679520F4E20FDD
:10153000F31FB41F0A1E220F331F441FAA1F6695F4
:10154000A9F7779530F4F30FB41F0A1E121E08F4A2
:101550006395330F441FAA1F221F769599F787952D
:1015600020F4B40F0A1E121E631F440FAA1F221F6D
:10157000331F8695A9F7862F712D602D11249F5753
:1015800050408AF0E1F088234AF0EE0FFF1FBB1FA6
:10159000661F771F881F91505040A9F79E3F510545
:1015A00070F054CF9ECF5F3FECF3983EDCF386950E
:1015B00077956795B795F795E7959F5FC1F7FE2BF0
:1015C000880F911D9695879597F9089500245527C2
:1015D00004C0080E591F880F991F009729F07695AF
:1015E0006795B8F37105B9F7802D952F0895EE0F23
:0E15F000FF1F0590F491E02D0994F894FFCFB1
:1015FE00000000006F013F0194047A048801870106
:00000001FF
